:020000022000DC
:1070000000000420757302005D7302005F730200CC
:1070100061730200637302006573020000000000E8
:107020000000000000000000000000006773020084
:1070300069730200000000006B7302006D730200B0
:1070400085A402006F73020021A902006F73020081
:107050006F7302006F730200A1A702006F7302003A
:107060006F7302006F7302006F7302006F73020090
:107070006F730200EDA902006F7302006F730200CC
:107080006F730200958202006F7302006F7302003B
:107090006F7302006F730200251F03006F730200FD
:1070A0006F7302006F7302006F7302006F73020050
:1070B0006F7302006F730200000000000000000008
:1070C0006F7302006F7302006F7302006F73020030
:1070D0006F7302006F7302006F7302006F73020020
:1070E0006F7302006F730200854F03000000000001
:1070F000000000006F730200000000006F730200C8
:10710000000000000000000000000000000000007F
:10711000000000000000000000000000000000006F
:10712000000000000000000000000000000000005F
:10713000000000000000000000000000000000004F
:10714000000000000000000000000000000000003F
:10715000000000000000000000000000000000002F
:10716000000000000000000000000000000000001F
:10717000000000000000000000000000000000000F
:1071800000000000000000000000000000000000FF
:1071900000000000000000000000000000000000EF
:1071A00000000000000000000000000000000000DF
:1071B00000000000000000000000000000000000CF
:1071C00000000000000000000000000000000000BF
:1071D00000000000000000000000000000000000AF
:1071E000000000000000000000000000000000009F
:1071F000000000000000000000000000000000008F
:10720000354936480A1A02D0072291438D4634493F
:1072100034480A1A06D00722914381F309880222D2
:1072200082F3148830483149314A00F044F831483B
:107230003149324A00F03FF831483249324A00F0D1
:107240003AF832483249334A00F035F83248334987
:10725000334A00F030F833483349344A00F02BF811
:1072600033483449344A00F026F83448344900227F
:1072700000F02CF833483449002200F027F8334856
:107280003349091A082902DB002202604160314AB1
:1072900090471F481F49884205D00268043003B454
:1072A000904703BCF7E700208646EC46002000210B
:1072B000294A9047FEE7884207D0521A05D0037842
:1072C00001300B700131013AF9D17047884202D088
:1072D00002700130FAE770470000042000E003204C
:1072E0000000042000000420D4E50300F42B00205B
:1072F000482C0020D0730200D0730200A48C03003D
:10730000D4E50300F42B0020F42B0020808E030032
:10731000808E0300808E0300808E0300808E030029
:10732000808E0300808E0300808E0300D4E503006E
:1073300028E60300482C0020482C0020482C002080
:10734000286E0020286E0020286E0020286E002065
:10735000288E00209D7302005DBD0200FEE7FEE75F
:10736000FEE7FEE7FEE7FEE7FEE7FEE7FEE7FEE7F5
:1073700000F002B8FFF7FCBF0F484FF00701884349
:1073800085460E4880470E48016841F4700101604F
:10739000BFF34F8FBFF36F8FFFF732BF09480A4922
:1073A0000A4A884207D0521A05D0037801300B7080
:1073B0000131013AF9D1704700000420D9C202001E
:1073C00088ED00E06C8E0300E02B0020F42B002001
:1073D000022003F07BBB000008B5094B1B7853B1BA
:1073E000002003F041FB012003F03EFBBDE8084014
:1073F000032003F039BBBDE8084003F049BB00BFE0
:10740000492C0020F8B57B4C237805461BB100239E
:107410002370FFF7E1FF172D00F28880DFE805F009
:107420000C17174354657680888D888D959A9A9AA3
:107430009A9AC4C9D1D9E4E4FFF7CEFF6E4800F0B0
:10744000DEFC6E4B002204461A702046F8BD002078
:1074500003F0E2FAF8B1002003F006FB022D0CBFA6
:107460004FF4E1614FF47A61644B1D704FF40040BA
:107470004FF47A740025E0FB01454FF4FA620023D3
:10748000204629460AF0C2FE00220146BDE8F84027
:10749000594800F09CBC03F0D3FA022D0CBFC82160
:1074A0004FF4C871E0E7002003F0B6FA40B10020C5
:1074B00003F0DAFA4FF44871504B03221A70D5E703
:1074C00003F0BEFAC821F7E7002003F0A5FA38B1AF
:1074D000002003F0C9FA4FF47A61484B0422EDE72B
:1074E00003F0AEFA4FF4C871F7E7002003F094FA06
:1074F00048B1002003F0B8FA404B05221A7040F65C
:10750000CD410022C2E703F09BFAF5E7002003F02B
:10751000DDFA3A4B06221A70002240F26661B5E7A6
:10752000002003F08DFA354B07221A7000248CE7F7
:107530000120207003F0CAFAEEE70120207003F06A
:10754000C5FA00224FF40051A0E703F0B0FA2B4B2C
:107550000C22EAE72A482B4E00F051FCD5F1110528
:1075600004461CD0D8B9012D13D0C8235D434FF475
:1075700000474FF47A7000214FF4FA620023C7FBF2
:1075800005010AF043FE224601461D4800F01FFC9B
:107590000446022003F054FA0123337055E7022019
:1075A00003F062FA0023F8E7FFF716FF134B1222ED
:1075B000BBE7FFF711FF002003F042FA0F4B132245
:1075C000B3E7FFF709FF012003F03AFA0B4B14224F
:1075D000ABE7FFF701FF002003F032FA012003F0D0
:1075E0002FFA064B1522A0E703F061FA034B1D703A
:1075F0009CE700BFB82C0020902C0020C02C00205D
:10760000502C0020492C0020044B1B68DB0703D5BD
:10761000034B1878FFF7F6BE704700BFB42C00206C
:10762000C02C00202DE9F04106460C4603F072FA0A
:1076300068B9012C0DD0022C25D044B9134800F0B4
:10764000DEFB134B9C78134B1B78A34211D0BDE893
:10765000F0810F4D6A782C7842B10F4F0B483A46B3
:107660004FF4804100F0B3FB00B93E70094BAA789B
:107670001A70002CEBD0094B1B68002BE7D020467A
:10768000BDE8F0411847024B5C78F2E7702C00200F
:10769000B02C0020C12C0020482C0020BC2C002045
:1076A00000780221FFF7BEBF002810B54FF00000A0
:1076B00014BF0324002403F032FA1F288ABF0A4BA8
:1076C0004FF0A04300F01F0003EB8000D0F800272C
:1076D00022F44032C0F80027D0F8003743EA0443D0
:1076E000C0F80037002010BD0003005008B903F0B7
:1076F00007BA002070470000044B1B6813F0010319
:1077000001D0FFF77FBE1846704700BFB42C0020A1
:1077100038B5194B1860194B10F002040546196072
:1077200014D0174B17480E221A70012140F2333241
:1077300000F0E2F9044648B900F034FA044628B9EA
:107740000146114A114800F037FB0446EB0711D5FA
:10775000012003F0E7F96CB921460D4A0D4800F00D
:107760002BFB044630B9BDE838400B4A0B480121D9
:1077700000F022BB204638BDB42C0020BC2C0020D9
:10778000B02C0020808E0300A17602008C8E0300B6
:1077900009760200908E0300D1730200888E0300E8
:1077A00038B9012A07D101290AD00246022909D095
:1077B00059B1072070470129F8D1054B1A7070475D
:1077C0000E22FAE7024B5A707047014B9A707047CD
:1077D000B02C002010B90120FFF766BF06207047CB
:1077E00008B5012202210020FFF7DAFF08B10728BF
:1077F00010D1072202210120FFF7D2FF08B107288C
:1078000008D100210A220846FFF7CAFF10B1072855
:1078100008BF002008BD00000388102B10B502D05F
:10782000112B1ED010BD1A4C2168B1B90122084697
:10783000FFF7B6FF08B1072824D107220221012053
:10784000FFF7AEFF08B107281CD104220221002057
:10785000FFF7A6FF08B1072814D12368013323607E
:10786000E0E70B4A1368013B1360002BDAD1FFF706
:10787000B7FF0028D6D0074B1B68002BD2D0BDE83D
:1078800010401847034B1B68002BE6D09847E4E7ED
:10789000C82C0020C42C002008B50020FFF79AFF58
:1078A00008B1062806D10120FFF794FF10B1062881
:1078B00008BF002008BD00000D4B10B518600C4635
:1078C00029B10120FFF712FF40B102232370094BB9
:1078D0001B6853B9BDE81040FFF782BFFFF706FFF2
:1078E00008B10B23F2E72070F1E7002010BD00BFC4
:1078F000C42C0020C82C0020C30710B507D4F023E7
:10790000054A4008145C23401943115410BD090175
:10791000C9B20F23F4E700BF002D002030B5094B9A
:107920001C78094B196800239C4202DC0022104697
:1079300030BD11F83350854201EBC302F7D001335B
:10794000F2E700BFCC2C0020202D002013B5044608
:107950000191FFF7E3FF38B143682BB1019920464D
:1079600002B0BDE81040184702B010BD034B0448F8
:1079700019680022490800F02ABA00BFD02C002064
:10798000D82C002010B5C0B2FFF7C8FF044600781D
:1079900002F0F8FE63785A1E53425341834208D1E5
:1079A000044BD3E90023134303D1BDE81040FFF794
:1079B000DDBF10BDF82C002037B54308354AD35C35
:1079C000C2074CBF1B0903F00F0304460D46042BEE
:1079D00035D8DFE803F003252C383C0079B30121CA
:1079E000FFF78AFF00230DF107008DF8073000F044
:1079F000E3FA0120A4F12003C4F12001264A20FA71
:107A000001F100FA03F30B43A040D2E90041204307
:107A10000B43C2E900039DF8070000F0F1FA0EE005
:107A2000002918BF02212046FFF766FF07E041B199
:107A30000321FFF761FF01212046FFF787FF03B015
:107A400030BD0121EFE70029F9D10421EBE709B1AD
:107A50000321E8E7FFF750FF29462046FFF776FFAE
:107A60000DF107008DF8075000F0A6FA0120A4F1EF
:107A70002003C4F12001084A20FA01F100FA03F3BF
:107A80000B43A040D2E9004124EA000021EA0303AD
:107A9000BFE700BF002D0020F82C00202DE9F041A9
:107AA000124E134F00243378A34208DC114BD3E964
:107AB0000023134318D0BDE8F041FFF757BF3D68DE
:107AC00005EBC40815F8340002F05CFE98F80130AC
:107AD0005A1E53425341181A4142414115F834008D
:107AE000FFF76AFF0134DEE7BDE8F081CC2C00200F
:107AF000202D0020F82C0020092AF7B505460C4659
:107B000016463CD902F06EFDD8B11E4B1E481D60D2
:107B10001E4B1F4F1C701F4B002120221E600AF0BD
:107B2000B3FC1D4B00200021C3E90001013CE4B27D
:107B30000326FF2C0BD1194A1948002100F03CF90B
:107B400003E002F009FD0028DFD003B0F0BD9DF88E
:107B5000063015F834008DF8046005EBC40223F0FC
:107B600007038DF8063001A993788DF805303A4661
:107B700002F042FD013CE4B20028DAD0E5E707203C
:107B8000E3E700BF202D0020002D0020CC2C00209A
:107B900085790200D02C0020F82C00209D7A02006C
:107BA000A08E030070B5084D084E00242B789C422F
:107BB00001D3002070BD3368012113F8340002F0B6
:107BC00097FD0134F2E700BFCC2C0020202D0020CF
:107BD0001FB50021039001AA44F20100CDE9011173
:107BE00000F004F805B05DF804FB000010B572B6B3
:107BF00003F04EFB03F098F90028FBD1104B114C19
:107C00001149E41AE408240444F0010003F0DCFA0A
:107C10000E4B1B68DB0700D500BE0D4944F0020087
:107C200003F0D2FABFF34F8F0A490B4BCA6802F434
:107C3000E0621343CB60BFF34F8F00BFFDE700BF8F
:107C4000648D0300948D0300A48E0300F0ED00E02A
:107C5000B08E030000ED00E00400FA05D0E9022335
:107C6000D1E90201994208BF90422CBF01200020B7
:107C70007047000008B50B4800F0F5FA0A4B0B49B5
:107C8000D3E900231218D1E9000143F100038B422C
:107C900008BF824203D212F1807243F10003104602
:107CA000194608BDF42B0020282D0020A02D00200F
:107CB00037B505460C460A4801A901F0A2FA60B1A1
:107CC0000570446001A9064801F0C5FA18B10548DD
:107CD00000F0CEFA002003B030BD0420FBE700BF67
:107CE0008C2D0020F42B002038B5184B1B7804464F
:107CF00013B90025284638BD0028FAD0037F03F0C9
:107D0000FF05002BF5D0FFF7B5FFD4E90223994218
:107D100008BF904214D3236903B92377D4E905300F
:107D2000984721690029E4D0237F03F0FF05002B49
:107D3000DFD0D4E90223521843F10003C4E902233F
:107D40000348214602F0F7F9D4E700BF302D0020A8
:107D5000CC8E030013B5114B11491868019008230C
:107D60001048582201F018FA044698B90E4A0F48F4
:107D700001A900F069F9044660B90C48012100F03E
:107D800055FA01230A4A0948194600F0B7F9094B88
:107D900001221A70204602B010BD00BFC88E030039
:107DA000342D00208C2D0020217E0200F42B002099
:107DB000FFFF7F00302D00203AB103685A614A1E50
:107DC000514251411961002070470720704738B572
:107DD000037F04460D4683B98261FFF74BFF236999
:107DE000401941F10001C4E9020103B125612146B6
:107DF0000020BDE83840FFF75BBF002038BD0023FE
:107E0000014603770120FFF753BF401A20F07F405F
:107E100070470000014800F026BA00BFF42B002094
:107E20002DE9F04F85B0804600F008FA40B15A4A7B
:107E3000D2E9003113F1807341F10001C2E9003150
:107E40000021404600F009FA38B1544E336823B19E
:107E50003068FFF749FF002333600121404600F0FE
:107E6000FCF920B1FFF706FF4D4BC3E900014D4877
:107E70004A4F4D4EDFF8389103A901F0FCF9002874
:107E800045D1DFF82491454EDFF828A1484602F09D
:107E900068F93368002875D07BB13368D0E90201F6
:107EA000D3E90223994208BF90422DD233681B7F49
:107EB0001BB13168484602F03EF9484602F04BF9E2
:107EC000D0E902B307460193FFF7D4FE019BBBEB59
:107ED000000463EB0105012C75F1000345DBB4F5EB
:107EE000350F40D3FFF796FF304A02444FF4960314
:107EF0000021504600F022F900283ED1336813B922
:107F0000404600F0F3F8376005B0BDE8F08F037825
:107F1000012B1DD0022B09D14FF0000A304602F090
:107F20001AF9002834D080F81CA0F7E73BB9416863
:107F30000B7F23B901230B77304602F0FCF803A92D
:107F4000184801F0C3F903A9164801F094F996E71F
:107F500041683B68994202D100233B60EFE730461D
:107F600002F002F9EBE7BA68C0E70021504600F0E2
:107F70006AF93846FFF7B8FE01E00D28F9D0002372
:107F8000336083E7002BBFD1404600F0B3F8BBE776
:107F9000012389F80030D2E7282D0020A82D0020E9
:107FA000A02D00208C2D0020CC8E0300FFFFB400FC
:107FB000302D0020F42B002070B5EFF3108672B640
:107FC0000C4A946801239CB993600B4B0B4DD3F87A
:107FD000801029401160C3F88050D3F8841051609C
:107FE0004FF0FF32C3F88420047006B962B670BD4A
:107FF0000370FAE7AC2D002000E100E0FC06FFBDB5
:10800000084B9A6810B55AB150B9EFF3108172B6A7
:10801000054A1C6814605C685460986001B962B6D7
:1080200010BD00BFAC2D002000E100E0435882B03D
:108030003BB10023435043580193019B012002B000
:1080400070471846FBE70000F8B5204B4479204DF7
:1080500043F824201F4A204B05EBC4049B1A2279C5
:10806000DB081B0432B143F002001C4903F0ACF8FA
:108070000820F8BD02680C88C2F8084590F9046031
:108080008A7804795201002ED2B219DB14498F1973
:1080900087F800230122760904F01F0402FA04F491
:1080A00041F82640427905EBC201012445F832002F
:1080B0000C7143F003000B4903F086F80020D8E769
:1080C000094904F00F040A55ECE700BFC02D002059
:1080D000B82D0020648D0300A48D0300D88E03000A
:1080E00000E100E0FA8E030014ED00E003680122D5
:1080F0001A607047036801225A60704773B501F136
:108100005005AD000068ADB24FF480348C400026BD
:10811000C0F80843C0F84843465101F5A8714559D5
:10812000019522F07F42019D40F82120C0F8444390
:108130000BB1C0F8044302B070BD00002DE9F74F49
:108140000D4622F07F4402684FF4803705F1500657
:108150008F408046B60002EB8500C2F84873B6B285
:10816000C2F80873D2F8041599464FF0000BD0F806
:108170004035C0F8401542F806B05B1A925900929B
:1081800023F07F43012B009A4FEA850A0CD1264B3E
:108190004FF4806043F001039847D8F8003043F86B
:1081A00006B09B590193019BD8F80010D1F80465E3
:1081B000C1F84473A31B23F07F43012B1CD11A4B3E
:1081C00005F5A875013443F0010341F825404FF44B
:1081D00080609847D8F80030D3F804359E4209D122
:1081E000D8F800300020C3F84473C3F8047303B018
:1081F000BDE8F08F0D20FAE78A44C9F1FF13CAF8F1
:108200004045D1F80405221A013A22F07F4203F5D5
:108210007F439342EED3002AE2D10134CAF84045AD
:10822000D1F804359842DAE7108F03000368022280
:10823000C3F8442309B1C3F80423704700684FF41E
:108240008271FFF7F3BE4FF4803303FA01F1036844
:10825000C3F84813C3F80813704750318900006809
:1082600089B2FFF7E3BE0368D3F804057047000046
:1082700090F90430002B09DB5A09012103F01F0398
:1082800001FA03F34032024941F82230704700BF3F
:1082900000E100E0024B034A1B681068184700BF6A
:1082A000C02D0020B82D002070B5064D06460024D4
:1082B00055F8043B0BB1304698470134042CF7D1F4
:1082C00070BD00BFD02D0020033080B240F2FE33DD
:1082D000984230B51FD8134B1A783AB91C895D897A
:1082E0002C440444A4B2B4F5806F0AD91A7DAAB90B
:1082F0009A8BDC8B2244024492B2B2F5806F0DD887
:1083000001220A801446142202FB04335A891044C5
:108310005881002030BD48F20860FBE748F2066053
:10832000F8E700BF042E00200B4A0C4B51881420A4
:1083300000FB0131CB6833B9042049681070012279
:10834000074801F087BB07490523137002238B8080
:10835000012209680023F3E7E82D0020042E002005
:10836000E02B0020CC2E002007B500230549009308
:10837000054A09680548082301F0D6FA03B05DF8FC
:1083800004FB00BFCC2E0020248F0300E02B002034
:1083900007B5002301460093034A0448082301F06F
:1083A000C3FA03B05DF804FB1C8F0300E02B002030
:1083B00013B500230C4600930146084A08480423DD
:1083C00001F0B2FA38B90749142303FB041401235E
:1083D000237402B010BD48F20D60FAE7188F030055
:1083E000E02B0020042E002037B50A480A4B4268D3
:1083F0009C88196853880325033305709BB20020BD
:1084000000909B0001EB8401044801F08DFA03B059
:1084100030BD00BFE82D0020CC2E0020E02B002036
:1084200010B50146044800F0ECFE1C220446002171
:108430000AF02AF8204610BDB82E002068B1026864
:10844000084B9A4209D14068074B984207D0013344
:10845000984214BF0320012070470320704700207A
:10846000704700BFDEC0ADDEFE011EF1438803335E
:1084700000EB830399420BD382884FF6FF739A4235
:1084800008D0038833B18068431C58425841704774
:1084900002207047012070472DE9F0410D4602236C
:1084A000154F2B80164600F5805100F108044FF05F
:1084B00001088C420ED2236801330BD02046FFF70F
:1084C000D5FF48B10EB186F80080022809D14FF4DB
:1084D00080632B80BDE8F081A3683A68934200D99D
:1084E0003B602B886288033313442B8063880333FB
:1084F00004EB8304DDE700BFFC2D002038B5144BEE
:1085000014220D4602FB00302B68446804F58051AC
:10851000A3B15C88033403EB84048C4215D2236836
:10852000013312D02046FFF7A1FF012808D002280E
:108530000BD00028F1D12C60012038BD0834ECE7C5
:108540006388033304EB8304E7E70020F5E700BF0B
:10855000042E0020426873B504460D466AB3244BCE
:10856000D9688A4229D31B699A4226D812F003039C
:1085700023D120490089098988421ED12068916849
:1085800088421AD11C494868824203D900F58050BC
:1085900082420DD389698A420CD901F580518A4201
:1085A00008D201222A80B3FA83F0400902B070BDDC
:1085B0001A46F7E748F20963F5E700232B801E46C9
:1085C0000196288801A9FFF799FF30B92B8801335C
:1085D0009BB2012B2B80F3D9E8E7019B22689968B5
:1085E0009142EED16360034B1B892381DEE700BF1C
:1085F000E02B0020E82D0020042E00202DE9F84378
:108600001C461D4B1B7806460F46154673B382B3B6
:108610007CB3DFF86C804FF01409A388012B02D9DA
:1086200048F2096020E009FB03F318F803302BB986
:10863000A0882146FFF762FF20B92060A38801339C
:10864000A380EAE723681EB1998832889142EFD16E
:108650001FB119883A889142EAD19A68C5E9002386
:10866000064B1B892B810020BDE8F88348F201608E
:10867000FAE748F20460F7E7E02D0020E82D00203B
:10868000042E002008B5074B5888191DFFF736FF48
:1086900018B1BDE80840FFF7A7BEBDE80840FFF7E6
:1086A00043BE00BFE82D00202DE9F04FA44FDFF8B6
:1086B000B49289B00646B8463B6823B9A1484946FA
:1086C00000F0D9FD3860D8F8005029784B1E052BF2
:1086D00007D8DFE813F022007C007C000E010E01B9
:1086E000660148F20E641422002103A809F0CCFEB2
:1086F00041F61D539C4208BF0024D8F80030049472
:108700001A78013A052A00F2F881DFE812F0E40154
:10871000E8010802180224022E022EB18A4B002220
:108720005A604FF40644DEE72B79032B1DD8DFE8AF
:1087300003F015022B3685490B78022B08461AD018
:108740000B7D022B4FF0010317D114225343C218A3
:108750000020C8545068FFF71BFE03E001232B7173
:10876000FFF702FE002800F0BE80774B00225A601F
:1087700048F20D64B7E70023E7E7734A137000235C
:10878000536041F61D54AEE771497248002302223E
:108790002B718A800968012201F05CF9E2E76C4CD8
:1087A00000262E712068694DFFF7F2FD6A4BD4F860
:1087B00000C05A8814235343EA18EE5451682160CC
:1087C000A188C2F804C011810222A280CAE7B5F8CC
:1087D00014A0AA7DDFF874B1AEB1022AEB8806D9E5
:1087E000142101FB0AB1DA1C088902440A8114220F
:1087F00002FB0ABAC3F57F43BAF80A20FD331344DB
:10880000AAF80A308DE7142303FB0AB318895C68C1
:1088100004EB8004062A69D8DFE802F0274E3644CC
:108820001D5A040041F61D54AA7DEB88022A06D980
:10883000142101FB0AB1DA1C088902440A811422BE
:1088400002FB0ABAC3F57F43BAF80A20FD3313448A
:10885000AAF80A3047E74148414900234360AB6921
:108860000360FFF777FE00285BD00223AB7500237F
:1088700000930423EA182146364801F055F80028F1
:1088800031D048F20D64CFE72B69002B14BF0323CE
:108890000123AB750023009305F10C02042304F1BE
:1088A0000801E9E70123AB750022EB8800922A69F1
:1088B0009B0004F10C01DFE703290CBF052306230D
:1088C000AB7500230093042305F10802E118D3E7F8
:1088D0000623AB75224B1988204B5868FFF768FDBB
:1088E00004460028A0D109B0BDE8F08F48F20E641C
:1088F0009AE7002E7FF415AF2B79012B34D0022B91
:108900003FF43FAF002B7FF4ECAE02232B710DF14F
:108910000A01EB68039303A8CDE90466FFF71AFE8A
:1089200010B948F20964DEE60498BDF80A1083889D
:10893000EB8003882B81FFF73BFD044627E000BF57
:10894000002E0020B82E0020E02D0020042E002054
:10895000CC2E0020E02B0020E82D0020C42D00208C
:10896000D82E0020F82D0020814B03AA3146A81DE7
:10897000FFF744FE7E4B044668B999880498FFF7D8
:1089800017FD044648F209639C423FF4FAAE002CFE
:108990007FF4A9AEA7E708223146184609F074FD16
:1089A000F0E7002E7FF4BDAE724B1A7BB2B11E739E
:1089B0001A78013A062A3FF694AE01A151F822F046
:1089C0006B8A0200918A0200AF8A0200B58A020017
:1089D000E3860200BB8A0200CD8A02001A78072AC9
:1089E000E6D801A151F822F0098A0200B1890200FB
:1089F000B18902002F8A0200438A0200678A0200BE
:108A0000678A02002B8A02001A895B4901321A81A7
:108A100000225A801A730A78B2FA82F252099A72C4
:108A20000A7DB2FA82F25209DA72012207E0534952
:108A300058688A884088033202448A8002221A7069
:108A4000B6E74D4C5A884D49142505FB024208688B
:108A5000546850608888108102200C608880002152
:108A600011740622EBE70722E9E79A7A32B9DA7A3B
:108A70008AB900221A705A805A6082E63E49002262
:108A80009A72CA68002AF2D1097C0029EFD05A8074
:108A9000FFF7F8FD51E70022DA72374A116A002920
:108AA000E7D192F82420002AE3D00122EFE7FFF774
:108AB0009BFC42E7FFF738FC3FE72F4A5B88142115
:108AC00001FB03235868FFF763FC36E700225A6076
:108AD000FFF74AFC31E700238DF80C300DE001224E
:108AE0008DF80C201A89ADF818209A88DB68059358
:108AF000ADF81A2000238DF81C3003A8FFF7D4FB33
:108B0000002649461E48C8F8006000F0DFFB1D48FB
:108B1000012100F095FC00287FF4CEADE3E60222AF
:108B20008DF80C201A89ADF818209A88ADF81A2013
:108B3000DA689B7D05929A1F53425341DBE703227B
:108B40008DF80C20DA88ADF818201A89DB68ADF8AA
:108B50001A200593D1E704228DF80C20DB88ADF8AC
:108B600018300023ADF81A30F3E70523B4E700BF4F
:108B7000DC2E0020E82D0020042E0020CC2E00202A
:108B8000B82E0020C82E00204068FFF78DBD0000E1
:108B900008B50548012100F03BFC18B9BDE80840C4
:108BA000FFF782BD08BD00BFC82E00202DE9F341AC
:108BB0009846374B1B7806460D46002B5CD00029A3
:108BC0005DD009884FF6FF7399425BD06B88002B0C
:108BD00058D06B689B0758D14AB92F890DF1020113
:108BE0003846FFF771FB30B102B0BDE8F081138861
:108BF0005788ADF8023001A8FFF712FC044660B9AF
:108C0000BDF80230234A142101FB0323588903389D
:108C1000C01B588148F20760E6E780F80080002317
:108C20008375BDF8023083826B68036101211A48A5
:108C300000F0FAFB2B882381B8F1030F6B88A38027
:108C400004BF0423A3754FF0000508BF3368E0603C
:108C500008BFA3611148E780658101A900F0FBFA14
:108C600036B1E36833600E4B75601B89B572338192
:108C7000FFF78EFF0020B7E748F20160B4E748F243
:108C80000460B1E748F20360AEE748F20260ABE788
:108C9000E02D0020042E0020FC2D0020B82E002006
:108CA000E82D002008B5034607480268042A08D0CA
:108CB0000168064A42F82130012100F0B5FB00208E
:108CC00008BD48F20B60FBE7D42E0020D02D002019
:108CD0002DE9F04F89B01422002103A809F0D4FB3C
:108CE000794A137803F0FF01009190463BB103A845
:108CF000FFF7DAFA0027384609B0BDE8F08F101DFB
:108D000000F0AAFB0028F5D140F6F8734FF080522E
:108D10001B685C1C08BF6D4B6D4C08BF1B6811695C
:108D20005269581C08BF02FB01F323616949A3F58E
:108D3000405300222046E36000F0C4FD0194074642
:108D40000028D8D164496548DFF8A4B11C238C22DF
:108D500000F022FABA463D464FF003093C46019B1B
:108D6000DE6856443046FFF769FB012862D00328CD
:108D700017D000283DD15A494FF0140C0CFB04FCCD
:108D800001EB0C0201F80C0056600CF110020CF122
:108D9000080C0A4430466144FFF77EFB45F00205AB
:108DA00045E03268531C02D04E4B9A4234D1321DFA
:108DB00006F58051106801302ED104329142F9D16C
:108DC000DBF800203AB902220123CBF80060ABF8AF
:108DD000042000930BE014226243414B02209918B7
:108DE0009854414A4E60548001340881A4B245F041
:108DF00001050AF5805ABAF5405FB0D1B9F1010F0B
:108E000098BF0025EDB2022D03D0062D31D0002DE4
:108E100039D148F20A676EE7314914226243881853
:108E200009F1FF394660032088541FFA89F901349B
:108E3000A4B2DEE7009B6BB1294B14226243991860
:108E400002209854DBF800204A60274A08815480A9
:108E50000134A4B200222549CBF800603046FFF768
:108E60001BFBBBF80420022A0CBF04220822154376
:108E7000BFE7012388F8003003A80023C8F80430B6
:108E8000FFF712FA37E702A8FFF7CAFAC8B10123C1
:108E9000013D03700A2D09D8DFE805F00608060831
:108EA000070807080F110F000023037102A90B48E0
:108EB00000F0D1F9FFF76CFE1DE70323F5E702236D
:108EC000F3E748F2076716E7E02D002014100010C2
:108ED000E02B0020209103002C2E0020B82E002033
:108EE000042E0020DEC0ADDEE82D0020D02E0020B4
:108EF000CC2E002073B50D460446C8B1C1B10DF1AA
:108F00000601FFF727FBB0B10C4BBDF80600666801
:108F1000142202FB003001210C3000F085FA636856
:108F20002E600C336B600123A372002002B070BD71
:108F300048F20460FAE748F20960F7E7042E0020DF
:108F400013B50446A8B10DF10601FFF703FB98B174
:108F50000C4ABDF80630142101FB0323DA6872B114
:108F6000A27A62B1DA680020013ADA60A07202B037
:108F700010BD48F20460FAE748F20960F7E748F2EA
:108F80000560F4E7042E002002230022FFF70EBE46
:108F900018B103230022FFF709BE48F204607047AE
:108FA000114B1B7813B50446ABB14FF6FF739842D3
:108FB00014D001A8FFF734FA98B1052303700123F8
:108FC0000371C48001A9094800F045F9FFF7E0FDED
:108FD000002002B010BD48F20160FAE748F20360D9
:108FE000F7E748F20760F4E7E02D0020B82E0020F4
:108FF0000F4B1B7807B5A3B101A8FFF711FA98B181
:109000000623037001A90B4800F025F90A4B1A78D2
:109010000AB101221A73FFF7BBFD002003B05DF80F
:1090200004FB48F20160F9E748F20760F6E700BF89
:10903000E02D0020B82E0020E82D002007B5ADF867
:109040000600ADF804100DF1060001A9FFF7D6FAED
:1090500003B05DF804FB07B51346ADF806000A46F9
:1090600000200DF10601FFF7C9FA03B05DF804FB1B
:1090700007B51346ADF806000A460DF106000021BB
:10908000FFF7BCFA03B05DF804FB20B119B1036827
:109090000B600020704748F2046070472DE9F84FDC
:1090A0003B4B1B780446002B6CD000286DD0DFF8BA
:1090B000E4A01222002109F0E7F9032323804FF0F6
:1090C000000BD04614274FF00109DAF80410BAF863
:1090D0000A50BAF808600846FFF7B0F9032808BF3D
:1090E0002388628804BF03F1FF33238007FB0B83CF
:1090F0002E44DB681344638023891D4463892581E2
:10910000B6B233446381C6F58066A389B6B2B34272
:1091100001F1080538BFA68101F58051A94229D97E
:109120002B68013326D02846FFF7A0F901280AD082
:10913000022815D00028F1D1A3880133A3800AE0CA
:109140004FF0010BC1E7E3880133E380E3896A88CC
:1091500003331344E3816B88033305EB8305DDE7B9
:10916000E38884F810900133E380E389491B03EB23
:10917000A101E1810AF1140ABBF1000FE0D0002047
:10918000BDE8F88F48F20160FAE748F20460F7E7BB
:10919000E02D0020042E002010B561B1B2FBF3F4E5
:1091A00003FB1424A4B244B9C0E900148460828192
:1091B000C381204610BD0E20FCE70920FAE782B0EB
:1091C00050E8022FC188B2EB324F4FF0000317BFB7
:1091D00092B241EA014142EA014104E04268B2EB45
:1091E000324F08BF012340E80212002AE8D18DF86F
:1091F00007309DF80730002B0CBF1120002002B073
:10920000704737B550E8013F9DB2C4892544848931
:10921000A54228BF2D1B0489A54202BFBFF32F8F93
:10922000002207E0C5EA030540E80154002CE9D11B
:109230004FF001028DF803200193019B9DF803205C
:109240000B6002F0FF0322B10B880068184403B0E2
:1092500030BD1846FBE70A884B889A4209D150E88E
:10926000012FC2EA024240E80123002BF7D101207E
:1092700070470020704737B550E8023F1FFAA3F54A
:10928000C488A54202BFBFF32F8F00220DE0C4891E
:1092900025448489A54228BF2D1BC3EA054540E823
:1092A0000254002CE8D14FF001028DF80320019305
:1092B000019B9DF803200B6002F0FF0322B14B8855
:1092C0000068184403B030BD1846FBE70A884B8895
:1092D0009A4209D150E8022FC2EA224240E8022312
:1092E000002BF7D1012070470020704701F01F02CA
:1092F0004B090121914000EB830000F065B84B0958
:1093000010B501F01F040121A14000EB830000F023
:109310004FF8E04000F0010010BD01F01F030122F2
:109320009A404B0900EB8300D14300F065B84B092C
:1093300001F01F0150F82300C84000F00100704701
:109340002DE9F0474F1E7F0980460E460137002564
:1093500058F8254008EB8509E44394FAA4F4B4FADC
:1093600084F44FEA451A202C06D10135AF42EFD8DC
:1093700034462046BDE8F0875444A642F5D921463C
:109380004046FFF7BCFF0028F3D0D9F80040E44383
:1093900094FAA4F4B4FA84F4E5E710B5034653E86C
:1093A000000F0A4643E8002494F0000FF7D110BDE7
:1093B00010B5034653E8000F40EA010243E80024D9
:1093C00094F0000FF6D110BD10B5034653E8002FFE
:1093D00042EA010043E8000494F0000FF6D110BD0A
:1093E00010B5034653E8000F00EA010243E80024E9
:1093F00094F0000FF6D110BD10B5034653E8002FCE
:1094000002EA010043E8000494F0000FF6D110BD19
:1094100010B5034653E8000F00EB010243E80024B7
:1094200094F0000FF6D110BD10B5034653E8002F9D
:1094300002EB010043E8000494F0000FF6D110BDE8
:1094400010B5034653E8002FA2EB010043E80004E7
:1094500094F0000FF6D110BD0121FFF7A9BF012143
:10946000FFF7B2BF0021FFF7BBBF10B590B1D0E945
:10947000012301689B1ADBB20A60013BDBB2FF2BC0
:10948000026802D10020107110BD11684C1C1460DC
:109490000B70F2E70E20F7E737B5054600240DF113
:1094A00007008DF80740FEF787FD2A686B68116892
:1094B00099420ED9481E106011F8014CEB68298AB8
:1094C00001FB0434AB6811791B1ADBB2994238BF37
:1094D00013719DF80700FEF793FD204603B030BDE1
:1094E00037B5054600230DF107000C468DF807300F
:1094F000FEF762FD2A681368591C1160E968641A56
:10950000298AB4FBF1F41C709DF80700FEF778FD82
:1095100003B030BD826810B504462AB143690168C2
:10952000006998470023A36010BD0EB403B50399EA
:1095300021B104AB01AA019300F076F802B05DF806
:1095400004EB03B070470A2938B504460D4602D132
:109550000D21FFF7F8FFA3682268591CA160D554BC
:10956000D4E901329A4204D32046BDE83840FFF7DF
:10957000D1BF38BD2DE9F84F9846DDE90A431546BD
:1095800082460F460A464FF00109AA420FD2C14552
:1095900038BFC14613F0010B01D16CB9002401267C
:1095A000B8F1010F1BD908F1FF386E43F8E709F154
:1095B0000109B2FBF5F2E8E79B070ED5B8F1000F01
:1095C0000CBF30262026A145E9D2013C3146504649
:1095D000FFF7B9FF002CF6D1E0E72026F3E7B7FB51
:1095E000F6F39D42E1D9DFF83C80B7FBF6F3504635
:1095F00018F8031006FB1377FFF7A5FF3346AB42BD
:10960000B6FBF5F6F1D2BBF1000F02D00CB1A145CB
:1096100001D3BDE8F88F20215046013CFFF793FFAE
:10962000F4E700BF358F03002DE9F74F05461746D5
:109630008846002900F0428118F8011B49B92B7BAC
:10964000002B00F03B81284603B0BDE8F04FFFF748
:1096500061BF252940F0B780002698F800302D2BF7
:10966000424608F1010823D0302B24D02B2B25D0E3
:1096700000242A2B02F1010123D13B681A1D1B682B
:109680003A601C440A4613782E2B26D101324FF043
:10969000000A104610F8011BA1F1300CBCF1090FB3
:1096A0001DD80A2303FB0A13A3F1300A0246F0E790
:1096B00046F00106D1E746F00206CEE746F0040682
:1096C000CBE711F8013CA3F130000928DBD80A22CE
:1096D00002FB0434303C0A46CBE74FF0000A12F894
:1096E000011B01F0FB0068289046F8D0782909D8C2
:1096F0006F290CD8632962D022D8252963D0582934
:1097000000F0888098F80030002B95D197E77039E9
:109710000829F7D801A353F821F000BF9798020059
:1097200005970200059702002598020005970200A0
:1097300003980200059702000597020015980200A1
:10974000642901D06929DDD13A68D2F80090111D51
:1097500089EAE9723960A2EBE9724FF0010B092A3C
:1097600035DCD34538BFD3462CB1B9F1000F01DB4E
:10977000720700D5013CB30702D5BAF1000F03D040
:10978000F00701D44CBB0024B9F1000F2DDAC9F168
:1097900000092D212846FFF7D6FE06F00302022A13
:1097A00004D1BAF1000F01D11CBB0024CDE9004661
:1097B00053460A2249462846FFF7DCFEA2E73B68EB
:1097C0001A1D19783A602846FFF7BDFE9AE70A236A
:1097D0000BF1010BB2FBF3F2C1E7A345D4D2202178
:1097E0002846013CFFF7AFFECCE77107D5D52B210A
:1097F000D0E7A345DAD230212846013CFFF7A3FE8B
:10980000D2E73968CDE900460A1D3A6053460A227C
:109810000968D0E739680A1D3A60CDE90046534629
:109820001022F5E73B681A1D3A6016F00106D3F8DE
:10983000009028D1B9F1000F03D0484608F079FE16
:109840000646B44200D904BB09F1FF3919F8011FDB
:1098500000293FF457AF2846FFF775FEF6E7284684
:109860000136FFF770FE19F806100029F7D1A6425D
:10987000BFF448AF002C3FF445AF20212846013CFF
:10988000FFF761FEF3E70026EDE720212846013CC3
:10989000FFF759FED5E73B681A1D3A60302128468C
:1098A0001C68FFF750FE78212846FFF74CFE002287
:1098B0000823CDE90032214610227CE703B0BDE841
:1098C000F08F00BF13B50B46114680B9104B1148FD
:1098D000114AC01A0E23C0080093104B000410490F
:1098E00040F0010001F087FC0E2002B010BD4BB922
:1098F000074B08480B4AC01AC0080E230093000407
:10990000064BECE703601B6802B0BDE81040184747
:10991000648D0300D48D0300458F0300DB900300AA
:109920004A8F0300798F03002DE9F34188B93D4B3D
:109930003D483E4AC01AC0080E243D4B0094000426
:109940003C4940F0010001F056FC204602B0BDE861
:10995000F0814AB9334B3448374AC01AC0080E2444
:10996000334B00940004EBE7D0F800E0BEF1000FA9
:1099700009D12C4B2C48314AC01AC00808242C4B62
:1099800000940004DCE74BB9264B27482C4AC01A48
:10999000C0080924264B00940004D1E74568D5F897
:1099A0000480B3FBF8F508FB15354DB11D4B1E487F
:1099B000244AC01AC00809241D4B00940004BFE7C4
:1099C0008D0709D0174B18481F4AC01AC008102429
:1099D000174B00940004B3E712F0030F09D0114BAA
:1099E00011481A4AC01AC0081024114B00940004F0
:1099F000A6E7C568A9420BD34D1EEC180569AC4219
:109A000006D8DEF80C40A44602B0BDE8F04160473D
:109A1000044B05480E4AC01AC0081024044B009499
:109A200000048DE7648D0300D48D0300458F03008F
:109A3000ED9003004A8F0300C78F0300738F03006C
:109A4000868F0300CD8F0300F78F03000F90030074
:109A500032900300F7B580B92A4B2B482B4AC01A25
:109A6000C0080E242A4B009400042A4940F001004B
:109A700001F0C1FB204603B0F0BDD0F800C0BCF13E
:109A8000000F09D11F4B2048234AC01AC0080824E0
:109A90001F4B00940004E8E74AB91A4B1A481F4AC2
:109AA000C01AC00809241A4B00940004DDE7476877
:109AB000D7F800E00EF1FF370F4209D0114B1248E2
:109AC000174AC01AC0081024114B00940004CCE7B8
:109AD000C768B9420CD304694D1E0EFB0255A5425E
:109AE00006D8DCF81040A44603B0BDE8F04060475B
:109AF000044B05480B4AC01AC0081024044B0094BC
:109B00000004B2E7648D0300D48D0300458F030089
:109B1000009103004A8F0300738F0300868F0300B8
:109B2000599003007F90030029DF704728DF7047BA
:109B300070B503689E6886B004460D466EB1142267
:109B40000021684608F0A0FCA368059323790195DD
:109B50002BB1012B0DD06846B04706B070BD012374
:109B60008DF8003023690293E368039363690493DB
:109B7000F1E702238DF80030E3681B030293F5E759
:109B80000846704700207047024B187A003818BF0B
:109B900001207047802F0020034B187A0122B0FA71
:109BA00080F05A7440097047802F002008B5104695
:109BB0001A4608F040FC002008BD000008B5142239
:109BC0000021044808F060FC0348FFF7F8FA002081
:109BD00008BD00BF802F0020702F002010B5094C59
:109BE000094B43602046FFF737FC40B908F080F985
:109BF000064920741C2306488C22FFF7CDFA00206A
:109C000010BD00BF802F002014910300E42E00201F
:109C1000702F002070B5244C244E237A25463BB982
:109C200023492448FFF727FB306008B9606070BD06
:109C3000022334682B72237973B1012B24D0204680
:109C40000321FFF775FF00232B726B601849194839
:109C5000BDE87040FFF73ABBD4E90523D21AB2F54C
:109C6000805FD4E9031028BF4FF480529208012A84
:109C700038BF012219441844FFF756FF50B111288C
:109C8000DDD101232B72D2E7D4E903031844FFF797
:109C90004DFFF3E72B7C002BC9D10146BDE8704096
:109CA000022000F009B800BF802F0020982F00206C
:109CB000942F0020702F002038B5831E012B45D82B
:109CC000234C237A002B41D0022B09D1032830D01A
:109CD000204B00221B68E2601A793AB1012A22D097
:109CE000637C7BBBBDE83840FFF794BFD3E9051226
:109CF0008D1AB5F5805F94BF521902F580529A61B2
:109D00009142EDD102284FF0000308BF194623729B
:109D1000104B18BF0D211868FFF70AFF0E490F48B6
:109D2000FFF7D4FADCE71A6901321A615B699A42DB
:109D3000E7E7E3680133082B01D8E360D0E70023AD
:109D4000E360DFE7BDE8384008F0C2B838BD00BFC7
:109D5000802F0020982F0020942F0020702F0020AB
:109D600000F0FD03012B08D1044B00225A74421E5F
:109D7000504250411874FFF74DBF7047802F0020AC
:109D800010B5064C201DFFF767FB28B9637C1BB993
:109D9000BDE81040FFF73EBF10BD00BF802F002080
:109DA0002DE9F34180460D460F4801A916461F468E
:109DB000FFF727FA0446A8B11C22002108F064FB33
:109DC0002D0B0123237101A90748C4F80080A76067
:109DD000E5606661FFF73FFAFFF7D2FF002002B0AF
:109DE000BDE8F0810420FAE7702F00202DE9F74349
:109DF00081468846104801A917461E46FFF701FA1A
:109E00000446B0B11C22002108F03EFB00250A9B4D
:109E1000A36001A9C4E9037807482571C4F800903C
:109E20006661FFF718FAFFF7ABFF284603B0BDE8FD
:109E3000F0830420FAE700BF702F00202DE9F84FCF
:109E4000B0F806A04579D2F800B09DF828900AFB3A
:109E500005F5043D88460BEB0301A94203F1040418
:109E600088BFA5EB030BB4FBFAF607460AFB1644C2
:109E7000C2F800B04EB9AAEB04055D4528BF5D46A7
:109E8000BBF1000F04D1BDE8F88F3F68013EF1E758
:109E9000043408EB06003C442A46B9F1000F0DD00B
:109EA0002146ABEB050B08F0C6FADA452E443F68B5
:109EB00055464FF0000428BF5D46E1E701462046C5
:109EC000EFE7FFF7D2BAF8B546790146721E0546AC
:109ED000002393422D6803D30024A64202D8F8BD84
:109EE0000133F6E70F682846FFF7FAFA01343946DE
:109EF000F3E72DE9F843068ACD1C0746FFF7CCFAB5
:109F0000043E35440446B5FBF6F5F0B14FF48073DA
:109F1000EDB28380C680013D076081464FF00008A6
:109F2000A84512D23846FFF7B7FA064648B163791A
:109F30000133637108F10108C9F800000760814628
:109F4000EEE72046FFF7BFFF34462046BDE8F88322
:109F500001210430FFF768BA10B50121044604302E
:109F6000FFF76EFA10F0FF0F04D12046BDE8104055
:109F7000FFF7A9BF10BD1FB503920022009203AAEC
:109F8000FFF75CFF05B05DF804FB1FB503920122EB
:109F9000009203AAFFF752FF05B05DF804FB41DF12
:109FA00070470000064B10B500241C70054B1C6068
:109FB000BFF35F8F0449054800F0A7F8204610BDA5
:109FC000A42F0020A82F00204C9103009C2F0020DC
:109FD00007B500230DF107008DF80730FDF7ECFF02
:109FE000F1EE103A23F09F03E1EE103ABFF35F8FDA
:109FF000094B4022C3F884219DF80700FEF700F8C2
:10A0000007F076FF20B1FFF7CAFF03B05DF804FB4D
:10A0100020BF40BF20BFF8E700E100E002681368FE
:10A020005268934291BFD01A80680130801888BF6F
:10A03000C01A7047036881681A685B688B4234BF36
:10A0400001330023D31A584258417047F7B5002313
:10A0500004460DF107000D468DF80730FDF7ACFF03
:10A060002046FFF7E7FF10B1237C002B3CD122688C
:10A07000A66853685168B14234BF01310021516074
:10A0800030B11168A068814234BF013100211160F4
:10A09000E2686068511E072920D8DFE801F004104B
:10A0A0001F141F1F1F182A78C2542046FFF7B6FF3F
:10A0B00023689A68824200D29860002415E02A88BA
:10A0C00020F81320F1E72A6840F82320EDE7D5E9CE
:10A0D000006700EBC300C0E90067E6E7294602FB22
:10A0E000030008F0A8F9E0E704249DF80700FDF755
:10A0F00087FF204603B0F0BD836800225A60C3E9A1
:10A1000004229A60DA601A6070470B684A684360FC
:10A11000934208BF0023016008BF43607047436853
:10A1200043B10268916852680B449342436004BF94
:10A1300000234360704770B5446806460D462068AA
:10A1400018B1B3682946984718B923682B60256071
:10A1500070BD2468F3E74368186808B102681A60A4
:10A1600070474368186870474368186800B97047BB
:10A17000884203D102681A600120704703460068D4
:10A18000F4E7000010B50D49A1F59472914201D891
:10A1900000200FE08C1AE30F03EBE4035B1002EBEB
:10A1A000C30452F83330834205D802D204F10802C6
:10A1B000ECE7606810BD2146E8E700BF5896030051
:10A1C00008B5FFF7DFFF024B002808BF184608BD9F
:10A1D0001B9503000B7B23B14B68036000230371C5
:10A1E00070470B6803600123F9E703684A688968D0
:10A1F00010B5D41A8C428BBF5B1800230360026039
:10A2000098BF037110BD03680A68896810B59C1A6D
:10A210008C428BBF5B1A01230360026098BF0371FD
:10A2200010BD037910B504461BB1FFF7DEFF2068AF
:10A2300010BDFFF7E8FFFAE738B5074C051E04F13B
:10A24000080318BF1C4623682BB11A6822605B689C
:10A2500028469847F7E738BDB42F002020B9054BB2
:10A2600001225A70FFF7E8BF012802D1014A90701D
:10A27000F8E77047AC2F002020B9034B01225A7039
:10A28000FFF7DABF704700BFAC2F002038B50E4C87
:10A290002378B3B90D486360A3602361E36000F0E5
:10A2A000BFF8054607F024FE08B900F0C5F8012301
:10A2B0002370074BD3F800340BB10123A370284659
:10A2C00038BD8525F5E700BFAC2F00205DA2020058
:10A2D0000000014037B50D4C00230DF107008DF84B
:10A2E0000730FDF769FEE368013BE360E36833B9DB
:10A2F000074BD3F8005415B900F0B0F8A5709DF8DD
:10A300000700FDF77DFE03B030BD00BFAC2F00207D
:10A3100000000140012813B50CD0032820D038B923
:10A32000124B0122C3F88020BFF34F8FBFF36F8F12
:10A3300002B010BD0E4C00230DF107008DF8073060
:10A34000FDF73AFE23780BB9FFF7A0FFE3689DF80D
:10A3500007000133E3600123A370FDF751FEE7E737
:10A3600000F06AF8FFF7B6FFE2E700BF00E100E0A7
:10A37000AC2F00201FB500238DF807000DF10F0052
:10A380008DF80F30FDF718FE07F0B2FD50B90948FF
:10A390000DF10701FFF75AFE0648FFF74BFE08B123
:10A3A00000F004FB9DF80F00FDF72AFE05B05DF8F4
:10A3B00004FB00BF048D030007B520B103280BD0B8
:10A3C00003B05DF804FB0F4B1B78012BF8D100F0B4
:10A3D000EDFA00F0F3FAF3E700230DF107008DF832
:10A3E0000730FDF7E9FD07480378012B05D1064941
:10A3F000013000F09BFA00F0C7FA9DF80700FDF766
:10A40000FFFDDDE71030002075A3020000F1804061
:10A41000002382B0036003680193019B02B0704780
:10A42000044A137923B901211060918018467047BE
:10A430008520704714300020074B1A68D20704D4D7
:10A44000C02283F8002301221A604FF080430122CA
:10A45000C3F81825704700BF00E100E04FF08042CC
:10A4600008B50223C2F808334FF48270FFF7CEFF1D
:10A47000034B01211960D2F81834DB03FBD408BD6B
:10A480000C000040124B1B6810B573B14FF4807084
:10A49000FFF7BCFF4FF080430122C3F808230D4BA8
:10A4A000587910B95A711B6898470B4B1B6873B1E8
:10A4B0004FF48270FFF7AAFF4FF080430222C3F8E7
:10A4C0000823044BBDE810401B680120184710BD4D
:10A4D00000010040143000200401004000F18040E1
:10A4E00000F5C040002382B0036003680193019B24
:10A4F00002B0704703681F2B83BF03F01F03036084
:10A5000001484FF0A04070470003005007B501908C
:10A5100001A8FFF7EFFF019B00EB8300D0F80037A5
:10A5200023F44033C0F80037D0F8003743EA014144
:10A53000C0F8001703B05DF804FB0000054B4FF0B6
:10A54000FF32072843F8202084BFC01880F8582025
:10A55000704700BF1C30002038B51E4C94F86A309C
:10A56000ABBB4FF6FF71FF205A09012A14BF4FF011
:10A57000FF320A4603F01F05EA40D20748BFE2183F
:10A5800003F1010348BF82F83000302BECD10021E9
:10A59000C8B2FFF7D3FF01310C29F9D106220021FF
:10A5A0000D4807F071FF0D4BC02283F806234022AF
:10A5B0001A604FF4BE70FFF791FF094B4FF0004255
:10A5C000C3F80423012384F86A30002038BD082032
:10A5D000FCE700BF1C3000208030002000E100E0DC
:10A5E00000600040034B93F86A00003818BF012058
:10A5F000704700BF1C300020F7B53B4E33180546AE
:10A6000093F93030002B6CDA8B78C3F34003002BC6
:10A610000BBF082400240C200820844202D104200F
:10A6200003B0F0BD56F82470013743D1701946F8D5
:10A63000242080F8304013B9331983F858508B78B0
:10A640005A0717D4D80737D501A80195FFF752FF4D
:10A65000019B00EB8300D0F8003723F00203C0F821
:10A6600000372248EA0805F007070123BB40875C52
:10A670003B4383548B780A7813F0020328D0A4005C
:10A6800004F1804404F5C0442D02D4F8103523F4BD
:10A690004F3323F44073C4F810351204D4F8103546
:10A6A00005F47C5502F4403215431D43C4F810559F
:10A6B0000020B5E70134B0E701A84A780195FFF71B
:10A6C00019FF019B03F5E073920040F82320C8E7CF
:10A6D000083C344494F8605045EA821284F86020C3
:10A6E000E6E708209CE700BF1C30002080300020F7
:10A6F00073B5224C2618054696F93020072A1ADD34
:10A70000224492F858309B09032B0FD1019001A8E5
:10A71000FFF7F0FE019BD0F81015D94001F00101C0
:10A7200002312846FFF7F2FE02B070BD012B0CBFCC
:10A7300002210321F5E7D3B2072BF5D8930003F1EB
:10A74000804303F5C043D3F8100540F00100C3F87F
:10A75000100502F14000800080B2FFF7BFFE002923
:10A76000E2D096F9303054F82330002BDCD00123AE
:10A7700003FA02F2024BC3F80423D5E71C30002091
:10A780000060004007B5019001A8FFF7B3FE019BF0
:10A79000D0F81005D84000F0010003B05DF804FBCC
:10A7A0002DE9FF470024CDE90244584D4FF4807253
:10A7B000012102F1804303F5C04390B21B68012BD5
:10A7C00006D1D5F804330B4202D0FFF787FE0C43C5
:10A7D0000432B2F5907F4FEA4101EAD14C4B1B683D
:10A7E000012B11D14FF4BE70FFF778FE4FF0A0435C
:10A7F00044F00044D3F820250292C3F82025D3F872
:10A8000020280392C3F8202814F0FF0F1AD0414FDC
:10A8100000250126344210D0AB0003F1804303F53C
:10A82000C043D3F81005D3F8101557F8253023B1DD
:10A83000C1F30141C0F3052098470135082D4FEAC7
:10A840004606E7D1002C59DA324D334C334E4FF0E7
:10A850000008012716F9013B5A1C3CD0C3F3C20182
:10A8600004A801445FFA83F911F8081C03F03F02C1
:10A8700003F0070307FA03F319422CD001A8019251
:10A88000FFF738FE019B03F5E07350F82330C3F364
:10A89000014ABAF1020F10460CBF03210221FFF753
:10A8A00035FE01A80192FFF725FE019B07FA03F38D
:10A8B000C0F82035AB1893F9303055F8233053B138
:10A8C0004FEA9911032904D0BAF1020F19D10129D5
:10A8D00001D11046984708F10108B8F1040FB9D129
:10A8E0004FF0A043D3F820250292C3F82025D4F8D6
:10A8F00020350393C4F820351343A7D104B0BDE835
:10A90000F087BAF1030FE6D10229E1E700600040C9
:10A910007C6100401C300020000300507C3000208F
:10A92000014B1B68184700BF8830002010B5124C3F
:10A930002278FAB9114B1960037813F0010F104B0C
:10A940001EBFD3F8042542F00102C3F80425D3F852
:10A95000002222F00102C3F800224378094A5B0179
:10A96000DBB282F80D334FF40053136001232370E0
:10A97000002010BD8520FCE794300020903000209E
:10A9800000D0004000E100E0064B00221A6082B0D7
:10A990001B680193019B044B0122C3F804231A6036
:10A9A00002B0704700D1004000D00040024A0123AD
:10A9B000C2F808335360704700D00040084A0123B2
:10A9C000C2F808335360074B4FF40052C3F880209D
:10A9D000BFF34F8FBFF36F8F034B00221A70704786
:10A9E00000D0004000E100E094300020074B00223E
:10A9F0001A6082B01B680193019B054BD3F80805D0
:10AA0000044B1B68C0B202B0184700BF00D1004021
:10AA100000D0004090300020074B1B5C1F2B8ABFEA
:10AA2000064A4FF0A04203F01F03D2F80405D840B5
:10AA3000C04300F0010070478296030000030050FD
:10AA4000074B1B5C1F2B86BF064903F01F034FF00B
:10AA5000A041012202FA03F3C1F80C35704700BF90
:10AA60008296030000030050074B1B5C1F2B86BF20
:10AA7000064903F01F034FF0A041012202FA03F33D
:10AA8000C1F80835704700BF8296030000030050EC
:10AA900008B50020FFF7E8FF0120FFF7E5FF0220DF
:10AAA000FFF7E2FFBDE808400320FFF7DDBF08B570
:10AAB0000020FFF7C5FF0120FFF7C2FF0220FFF7CC
:10AAC000BFFFBDE808400320FFF7BABF0A4B185C80
:10AAD0001F288ABF094B4FF0A04300F01F00D3F896
:10AAE00004250121814021EA02000A40C3F808053B
:10AAF000C3F80C25704700BF829603000003005086
:10AB0000034BD3F810056FEA901000F00100704776
:10AB100000030050263818BF4FF0FF307047262042
:10AB200070470000C10710B5044642D54FF080437E
:10AB3000D3F84036DA072ED54FF01023D3F804337C
:10AB400003F00703072B26D11D4B0122C3F8042570
:10AB5000D3F80024002AFBD04FF01021D1F80423B1
:10AB600022F0070242F00402C1F804230022C3F8D5
:10AB70000425134AD2F80034002BFBD0BFF34F8FCB
:10AB80001049114BCA6802F4E0621343CB60BFF373
:10AB90004F8F00BFFDE74FF0A0420C490323C2F8DE
:10ABA0001837C2F82037C1F82437C2F83037FFF71A
:10ABB0006FFFA30742BF054B0C22C3F8182710BD37
:10ABC00000E0014000ED00E00400FA050003005041
:10ABD0007047000007B5044B0093044A402300F07F
:10ABE00032F803B05DF804FBF1AB020096300020B0
:10ABF0002DE9F84388461446B2B10F4B0F4E03259A
:10AC0000002743F00109224608EB0701002001F06C
:10AC10000FFB0744241A48B933782BB14FF47A401C
:10AC2000C847013D02D13570BDE8F8830123337078
:10AC3000002CE8D1F8E700BF909603009530002083
:10AC4000704701F029BBF0B595B01D461646084681
:10AC50000C46FFF77DF91A9B0D93CDE90865002599
:10AC60002B46082205A920460A958DF82C500C95F4
:10AC7000FFF78BF9079B0293069B03939DF8143013
:10AC80008DF8115003F00302012A1DD1BDF81420E4
:10AC9000059DC3F3C203C2F383168DF81030B200D2
:10ACA00008230EA92046FFF770F9C5F3952508ABD8
:10ACB0000093324602AB0EA9284600F05DFB204609
:10ACC000FFF74AF915B0F0BD022AF8D1BDF81650C9
:10ACD000C3F3C203C5F389158DF810300827082D7A
:10ACE0002E4628BF08263B4632460EA92046FFF7CF
:10ACF0004CF9AD1B08AB02AA31460EA8374400F050
:10AD00009FFB002DEBD1DAE708B5FFF79AFF044867
:10AD1000042100F09BFA034B01225A7108BD00BFC9
:10AD20005C8E0300FC2B0020037813F0040216D085
:10AD300003F00303012B03D0022B09D0012070473D
:10AD40000A6800880232C0F3831002440A60F5E703
:10AD50000B684288023303EB92130B60EEE7104658
:10AD6000704700002DE9F04F87B000230446861C91
:10AD70000DF107000F4615468DF80730FDF71CF959
:10AD8000404A51683960936803F580735B1A9246B4
:10AD900002F21C4702F5836902F21448B3421AD347
:10ADA0000020002D69D004F00F039B0143F0050340
:10ADB00063F30F00DAF80430DAB203321E444AF8C3
:10ADC00022009DF80700CAF80460FDF719F9012078
:10ADD00007B0BDE8F08F01213846FEF725FB484655
:10ADE000FEF73DFB4046FEF73AFBDAF8080002901A
:10ADF000C0B203300AEB800002A9FFF795FF029B67
:10AE000030BBDAB20AEB8202D16803919A1C01339B
:10AE1000DBB20AEB83030292D3F80CB001F0030318
:10AE2000012B22D0022B15D083464046FEF71AFB99
:10AE300010B1029BCAF8083059463846FEF7F4FABA
:10AE4000DAF80830DAF8042003F580739B1AA5E7D6
:10AE5000D8B2CEE7BDF80E30C3F3891303334FEAFF
:10AE60001B4B02EB93030293DFE7BDF80C30C3F3F7
:10AE700083134FEA1B4B1344F5E7A40544F0060087
:10AE800098E700BFA8310020064B074810B5002204
:10AE90001A70FFF716F8044610B90448FFF72CF9AA
:10AEA000204610BDA8310020488D0300CC96030039
:10AEB00030B50A4C71B10A4A0A49121BD208002364
:10AEC0009A4201D1002030BD31F82350854202D092
:10AED0000133F5E7034654F83300F4E7648D0300CB
:10AEE0005C8E0300F42B0020094B013903EBC000FA
:10AEF000032909D8DFE801F00A020406042070479C
:10AF000000797047407970470020704702207047F1
:10AF1000648D0300034BD3E90130C31A58425841F2
:10AF2000704700BFA83100202DE9F04186B0FFF73F
:10AF3000F1FF0546002840F0E680744CC4F8180480
:10AF4000BFF34F8FA3680293DBB2033304EB83009C
:10AF500002A9FFF7E9FE029B18B1D4F81824002AD1
:10AF600055D0DAB2991C013304EB8202DBB204EB58
:10AF70008303D268DB68049302F00303022B03927D
:10AF800002914FD1BDF80E306148C3F38917502F9D
:10AF90003E4628BF502666F38F1306F10801ADF830
:10AFA0000E30FEF7A6FF0546002800F09780FEF75A
:10AFB000CFFF002303A908222846FEF7DCFF0299F1
:10AFC000CB43DBB20133C9B20331B6EB830F4FEA97
:10AFD000830804EB810122D908234246A6EB080628
:10AFE0002846FEF7C8FFF6B24A4908F10803324680
:10AFF0002846FEF7C0FF029B033703EB9707029733
:10B00000D4F81834002B41D1D4F8106451E06268B0
:10B010009A4299D8A260284606B0BDE8F08108237C
:10B020003246E5E7012B59D1BDF80C303848C3F35F
:10B030008311062928BF062161F389130231890093
:10B04000ADF80C30FEF755FF0546002846D0FEF758
:10B050007FFF0023082203A92846FEF78CFF002665
:10B06000BDF80C20C2F38312B300964203F108032B
:10B07000C6D202994A1CC9B20331029204EB810183
:10B0800004222846FEF777FF0136E9E72846FEF757
:10B0900063FFFFF73FFF80F00100C5B2BBE7F36835
:10B0A0005B7923B1336829461B6830469847F368BB
:10B0B0001E68002EF3D12846FEF74EFF0DF1070063
:10B0C0008DF80760FCF778FFD4F818340BB9029BB1
:10B0D000A3609DF80700FCF793FFDAE7D4F810446B
:10B0E00054B90D4B0D480E49C01AC008000440F079
:10B0F000020000F069F8CCE7236820469B68984777
:10B10000E3681C68ECE7002585E700BFA831002054
:10B11000488D0300B4310020648D0300948D03003A
:10B12000B49603002DE9F34704460E46924601A962
:10B13000012218469946FFF715FE214F10B3019DD5
:10B140004FF00008AA1CC84508EB02012ED11D488B
:10B150000021FEF722F980F31000000440EA1440B9
:10B16000E4006B1C04F03804DBB2EDB244F00104DF
:10B1700007EB8303033544EA881444EA8624D86045
:10B1800047F825403B7873B100230DF103008DF89B
:10B190000330FCF711FFFFF7C7FE0028FBD19DF835
:10B1A0000300FCF72DFF02B0BDE8F087C9B207EB42
:10B1B00081015AF82830CB6008F10108C3E700BFCD
:10B1C000A8310020C435002000231A46FFF7AABF8B
:10B1D00007B50123019201AAFFF7A4FF03B05DF8B0
:10B1E00004FB07B5CDE9002302236A46FFF79AFF67
:10B1F00003B05DF804FB1FB5CDE90123069B039363
:10B2000001AA0323FFF78EFF05B05DF804FB1FB50D
:10B21000CDE90023069B0293079B03936A46042310
:10B22000FFF780FF05B05DF804FB7FB5CDE9012392
:10B23000089B0393099B04930A9B059301AA05238A
:10B24000FFF770FF07B05DF804FB000030B50F4951
:10B25000D1F8102403460020144634B9DC6820716C
:10B260004AB9C1F81034226030BDE46825798542BE
:10B2700006D02468F1E7D268116821601360F3E713
:10B2800001300A28E8D14FF0FF30EDE7A831002067
:10B29000084A38B50123D2F8104413701D4604B98A
:10B2A00038BDE3685D71236820465B689847E368B2
:10B2B0001C68F4E7A831002007B503460846197A50
:10B2C000052911D05B7A2BB1094A0A490190FEF792
:10B2D0002CF9019808490190FEF727F9019803B06D
:10B2E0005DF804EBFEF716B9002AF8D0F2E700BFCC
:10B2F000D8960300DFAD0300FA96030030B5C3888B
:10B3000085B004460D4633B1144A00921449154ADB
:10B310002846FEF70AF9217A05291DD0637A4BB138
:10B32000A088FFF7E1FD104B104953F82020284674
:10B33000FEF7FBF8227A0E4BA08853F822200392E6
:10B340000021FFF7B5FD039A0A490346284605B0D8
:10B35000BDE83040FEF7E9B805B030BDD89603002F
:10B36000E5960300DD96030064970300DFAD03005C
:10B3700088970300FD9603002DE9F04385B01F4632
:10B380000C9D002395F80C902B7306460C469046B6
:10B3900029463846FFF7B2FFB8F1060F09D8DFE8B3
:10B3A00008F00412181F2833400031462846FEF7E3
:10B3B000BCF8002229463846FFF77EFF85F80C903E
:10B3C00005B0BDE8F083226831462846FEF7ADF8A7
:10B3D000EFE7D4E9002331462846FEF7A6F8E8E770
:10B3E000A36800933146D4E900232846FEF79DF870
:10B3F000DFE7E3680193A36800933146D4E90023B3
:10B400002846FEF792F8D4E723690293E368019394
:10B41000A36800933146D4E900232846FEF785F857
:10B42000C7E76369039323690293E3680193A36801
:10B4300000933146D4E900232846FEF776F8B8E7B2
:10B4400008292DE9F74F80460E4617461C463CD882
:10B45000002593F80C901D7319461046FFF74EFF18
:10B46000DFF888A0DFF888B0AE4231D918F805209F
:10B4700059462046FEF759F80135082DF4D11949EF
:10B48000194DDFF870A02046FEF74FF84FF0000B83
:10B490005E4522D918F80B207E2A05D81046019265
:10B4A00006F074FF019A00B92E2251462046FEF79D
:10B4B0003CF80BF1010BBBF1080FE9D10122214649
:10B4C0003846FFF7F9FE84F80C9003B0BDE8F08F22
:10B4D00051462046FEF729F8CEE729462046FEF7DA
:10B4E00024F8E6E7119703000F9703000D97030078
:10B4F000079703001397030028B139B10023C1E96E
:10B5000000301846704748F21050704748F2135008
:10B51000704738B1006848F24053884214BF18465B
:10B520000020704748F21050704730B119B10B68D5
:10B53000934205D30A600020704748F213507047C9
:10B5400048F21450704700002DE9F041884600AFE2
:10B5500006461146404614461D46FFF7CDFFF8B992
:10B5600029464046FFF7C8FFD0B998F804200F4B92
:10B5700053F82230BBB156B90D4931F8121031B130
:10B5800007316A46C908A2EBC10295466E462A46B3
:10B5900021463046984718B9064B2360063B2B607E
:10B5A000BD46BDE8F08148F20350F9E7B8970300C3
:10B5B0009C9703007652464D70B505460C461E46D4
:10B5C000FFF79AFF70B9AB796AB1B3420ED129790E
:10B5D000094B53F8213063B111462046984708B90A
:10B5E000064B236070BD48F21050FBE748F2115043
:10B5F000F8E748F20350F5E7EC9703007052464D28
:10B600002DE9F0410D460D4904461646FFF781FF2E
:10B6100090B967683146BA792846FFF786FF58B96E
:10B620003A79074B53F8223023B129462046BDE82A
:10B63000F041184748F20350BDE8F0817052464D82
:10B6400020980300F0B530B14079B3B1C9B18AB9DF
:10B6500048F2135313E01846F7E7441E00254E5DE9
:10B660000F5D575516550135013CA542F7D91B1AF8
:10B67000014402448342F0D20BB148F21153184600
:10B68000F0BD48F21053FAE72DE9F8430D4600AF3C
:10B6900004461D49284616469846FFF73AFF48BB20
:10B6A0001A493046FFF735FF20BBD5F80490736880
:10B6B000994522D199F80520396A4046FFF735FFB0
:10B6C000C0B999F80430124A52F82390B9F1000F2A
:10B6D00016D054B90F4A32F8133033B107336A46E3
:10B6E000DB08A2EBC3039D466C464346324629461F
:10B6F0002046C847BD46BDE8F88348F24150F9E707
:10B7000048F20350F6E700BF7652464D7052464D60
:10B710005498030084980300F8B50A4F0A4C0B4D67
:10B72000E41B0121E40829700026A64203D102236C
:10B730002B700020F8BD57F8363098470028F9D113
:10B740000136F2E75C8D0300648D03006036002053
:10B75000054B1A78022A04D01878431E58425841E3
:10B7600070470120704700BF6036002070B5064664
:10B770000D466A46194B9A4205D3FFF7E9FF78B99F
:10B780004FF4054070BD164B16481749C01AC00843
:10B79000000440F00100FFF717FD48F21950F1E7EF
:10B7A000124C236823B1124B1A68124B9A420FD0E5
:10B7B00086B97DB910481149206001F0ADF8002824
:10B7C000E0D10B4B0B4A1A6023680D4A1A60D9E787
:10B7D0000020D7E748F21750D4E700BF00E003206D
:10B7E000648D0300948D03009C980300304F00206B
:10B7F0004C3700206572E54B64360020503700203E
:10B800006169614D10B56C46154B9C420FD3DAB996
:10B81000144B1C68144B9C421BD1E8B913481346C7
:10B82000BDE810400A460068114901F0B3B8114B59
:10B8300011481249C01AC008000440F00100FFF787
:10B84000C3FC48F2195010BD0029E1D148F2105054
:10B85000F9E748F20250F6E748F21750F3E700BF65
:10B8600000E003204C3700206572E54B304F00208C
:10B8700050370020648D0300948D03009C980300D2
:10B8800073B513460D460446F8B111B3144A116856
:10B89000144A914220D1144E01932A460146306841
:10B8A00001F05AF848F27152904210D1002211462C
:10B8B0001046FFF7A7FF50B9019B30682A46214682
:10B8C00002B0BDE8704001F047B848F2135002B032
:10B8D00070BD48F21450FAE748F20250F7E700BF93
:10B8E0004C3700206572E54B304F00200122FFF7F6
:10B8F000C7BF0022FFF7C4BF33DF704776DF704752
:10B9000078DF70477ADF70477CDF70478FDF7047E2
:10B91000FCF75EB908B50948094B0A49C01AC008C6
:10B92000000440F00300FFF74FFC04F03BFB18B1AC
:10B93000BDE80840FCF74CB908BD00BF948D03007A
:10B94000648D0300B598030008B50020FBF7D4FE12
:10B9500008B1FCF73DF9FBF79FFF08B1FCF738F998
:10B96000FFF7CAFF18B1BDE80840FCF731B908BDC0
:10B97000034B0448197881F00101197006F0C7B92A
:10B98000C05400200854002010B51249124C13482E
:10B99000FEF747FC236881B201331148236006F0AB
:10B9A0006EF930F0080209D020F00202112A05D009
:10B9B00043F20142904201D0FCF70AF92268094B98
:10B9C0005343B3F1553F084A94BF0023012313703A
:10B9D00010BD00BFCC530020344F0020DC530020AA
:10B9E00008540020ABAAAAAA122C002008B50D49C1
:10B9F0000D48FEF716FC4FF6FE72C1B20B4805F07B
:10BA0000FBFE30F008020BD020F00202112A07D012
:10BA100043F20142904203D0BDE80840FCF7D8B899
:10BA200008BD00BF80530020905300206C530020BD
:10BA300010B50388212B86B004460FD80F2B11D9DF
:10BA4000103B112B0ED8DFE803F00F2A0D620D0D0D
:10BA50000D6D767D0D0D0D0D0D0D0D3A3B2B40D06E
:10BA6000562B4DD006B010BD424B43484349C01A37
:10BA7000C008000440F00300FFF7A6FB0720FBF717
:10BA80003BFE08B1FCF7A4F83D4BA1883D48198066
:10BA900003F0F2FB0028E5D0FCF79AF8E2E7354B1B
:10BAA0003548227A3849C01AC008000440F0030023
:10BAB000FFF78EFB324B4FF6FF721A80D2E72D4B09
:10BAC0002D483249C01AC008000440F00400FFF7B6
:10BAD0007BFB0023A088ADF8143005A9FFF716FF03
:10BAE000D8E72548234B2A49C01AC008000440F073
:10BAF0000400FFF769FBA0881321FFF7FFFEC9E7E9
:10BB00001D481C4B2349C01AC0080004EFE71A481F
:10BB1000184B2149C01AC008000440F00400FFF788
:10BB200053FB9FE71448134B1C49C01AC00800047C
:10BB300040F00300F3E710480E4B1949C01AC00843
:10BB40000004F5E7437A0B4A0B481649801A627BDA
:10BB50000292227B0192A27AC008C2F3C0020004C2
:10BB60000092C3F38003227A40F00300FFF75DFBED
:10BB700078E700BF648D0300948D0300C298030032
:10BB8000102C002058540020CD980300E6980300A4
:10BB9000FA9803000F9903002499030043990300C6
:10BBA000609903007F9903000A8840F677239A4240
:10BBB00010B50C460BD1094B09484A88C01AC00879
:10BBC00000048B88074940F00300FFF70AFB214679
:10BBD0000548BDE8104006F09DB800BF648D030025
:10BBE000948D0300D59903000854002008B503780C
:10BBF0004BB9054B3B211888FFF780FE18B1BDE813
:10BC00000840FBF7E5BF08BD102C0020072808B549
:10BC100013D00A280DD0042819D10D4B13211888F0
:10BC2000FFF76CFE30F0080311D0BDE80840FBF7C9
:10BC3000CFBFBDE80840FFF787BE054B1A884FF617
:10BC4000FF739A4203D1034801F0A1FCEAE708BD63
:10BC5000102C0020384F002008B598B1032815D1CA
:10BC60000B4B0C480C49C01AC008000440F00300FC
:10BC7000FFF7AAFA0220FBF73FFD38B1BDE8084004
:10BC8000FBF7A6BFBDE80840FFF75EBE08BD00BFDA
:10BC9000648D0300948D0300049A030008B51B4BC8
:10BCA0001B78002B31D01A491A48FEF7BAFA81B234
:10BCB000194806F012F816491648FEF7B2FA81B292
:10BCC000154806F00AF812491248FEF7AAFA81B29E
:10BCD000114806F002F80E490E48FEF7A2FA81B2AA
:10BCE0000D4805F0FAFF0A490A48FEF79AFA81B2B0
:10BCF000094805F0F2FF06490648FEF792FABDE84A
:10BD0000084081B2044805F0E8BF08BD122C0020AD
:10BD100064540020745400200854002008B50548DD
:10BD2000032101F0EDFA18B1BDE80840FBF750BF60
:10BD300008BD00BF384F002010B5044604F0BAFD1E
:10BD4000204604F099FB23780C2B03D1BDE810406A
:10BD5000FFF7E4BF10BDFBF73BBF000000B54FF499
:10BD60008041B7B00020FFF78FF808B1FBF730FF34
:10BD7000FEF7CAFFFBF7EEFF08B1FBF729FFB14A58
:10BD8000B1480121FCF718F808B1FBF721FFAF4AD1
:10BD9000AF480121FCF710F808B1FBF719FFAD4AD5
:10BDA000AD480121FCF708F808B1FBF711FFAB4AD9
:10BDB000AB480121FCF700F808B1FBF709FFA949DE
:10BDC0000320FBF7A5FC08B1FBF702FF0BA900203D
:10BDD000FBF772FD08B1FBF7FBFEFEF7E3F808B1D5
:10BDE000FBF7F6FE06F006F808B1FBF7F1FE0023BC
:10BDF0000BA901200B9306F0CBF808B1FBF7E8FE86
:10BE00000BA806F097F908B1FBF7E2FE112396485C
:10BE10008DF81C3006F08DFB934982B207A8FFF71E
:10BE200073FD08B1FBF7D4FE40F24130FFF768FD27
:10BE300008B1FBF7CDFE8D4C082200210BA806F0BF
:10BE400023FB4FF0C8730BA8CDE90B43FFF75AFD56
:10BE500008B1FBF7BDFE8649864802F0DBFE08B15B
:10BE6000FBF7B6FE0021AC220BA806F00DFB022367
:10BE70008DF82C3040F20163ADF82E300323ADF87D
:10BE80003C307D4B109301234FF496708DF8A83011
:10BE900044F25063CDE92D030BA9784B78483493D5
:10BEA00001F0B7F908B1FBF793FE7548012101F0E5
:10BEB000ADF9744B7448029302A903F0CBF908B1B1
:10BEC000FBF786FE03230021102203A88DF807301C
:10BED00006F0DAFA0023039301238DF810300DF1F8
:10BEE00007030593694840F2011303A9ADF8183020
:10BEF00005F056FE08B1FBF76BFE1022002107A8E3
:10BF000006F0C2FA00230793012209936048614BAF
:10BF10008DF8202007A90A9305F0FAFB08B1FBF77A
:10BF200057FE402200210BA806F0AEFA0BA85A4992
:10BF300001F023FE01230BA88DF8683005F0F2FC18
:10BF400008B1FBF745FE55495548512301256426A4
:10BF5000C1E900368D600D73FEF73CF95149524836
:10BF60008C224FF49673C1E9002300240A238B60CE
:10BF70000C73FEF72FF94D494D480E604FF4FA73DC
:10BF8000C1E901350C73FEF725F921461C220BA8E7
:10BF900006F07AFA4FF4F0234FF4A031CDE90C13F8
:10BFA00003238DF83830394B0B949B89ADF83A3028
:10BFB000404B10930BA8404B8DF83C40119301F07F
:10BFC00003FC08B1FBF704FE03F026FF08B1FBF702
:10BFD000FFFD052200210BA806F056FA0B9B03F08B
:10BFE0007C42364B13430B939DF8303023F0030310
:10BFF00043F003030BA88DF8303003F0A7FF08B11E
:10C00000FBF7E6FD2E4803F089FF08B1FBF7E0FDE2
:10C010002C4B2D482D49C01AC008000440F00300E5
:10C02000FFF7D2F82A4800224FF40041FBF7CFFE79
:10C0300008B1FBF7CDFD274800224FF48041FBF704
:10C04000C6FE49E0EDB90200589A030089B9020022
:10C050005C9A03009DBC0200609A030071B9020063
:10C06000649A03000DBC0200169A03004001080206
:10C07000A9BB0200B8530020042C002059BC0200C8
:10C08000384F002011B902005854002008540020F5
:10C090006C53002064010101219A030080530020A9
:10C0A00090530020CC530020DC5300206454002027
:10C0B00074540020EDBB020057BD02003507100389
:10C0C00039BD0200648D0300948D0300359A03008E
:10C0D00098530020E853002008B1FBF779FD104881
:10C0E000002241F23331FBF772FE08B1FBF770FD1D
:10C0F0000C4800224FF4A031FBF769FE08B1FBF7B2
:10C1000067FDFFF707FC02F0A5FF08B1FBF760FD34
:10C11000FEF70AFF0028F6D1FDF75AFFF3E700BF4C
:10C1200080540020A05400200369C1688B429DBF49
:10C130008268D21802F1FF3203F1FF3394BF501A24
:10C14000581A70472DE9F843D0E902940546A9EB47
:10C1500004084068904520440F46144404D906F072
:10C160006AF9EC60BDE8F8834246A4EB090406F0E6
:10C1700062F96868224607EB0801F0E72DE9F84309
:10C18000C5680646894617464FF000083469B3680B
:10C190007068A54228BFE418013C621B5C1BBC42CE
:10C1A00028BF3C46944228BF1446494628442246AC
:10C1B00006F041F9B3682544AB4208BF00253F1B98
:10C1C000A044A144F560E1D14046BDE8F8830000F9
:10C1D00010B5114C1149A1610223C4E90433A164D3
:10C1E0000F4B1049E361E1644FF400731021012209
:10C1F0002362216500230C49A362E01D6362A365ED
:10C200006365E262E26506F072F90849204606F0CD
:10C210006EF92023A37110BDC4540020689A030056
:10C220004C5500203C550020719A0300759A03007C
:10C23000F8B5184C182300FB033503FB00402544D8
:10C24000C46A012C0F4616460FD0022C1AD0F4B93E
:10C250002846FFF769FF864205D832463946284608
:10C26000FFF770FF34462046F8BD2846FFF75CFF15
:10C270008642344628BF0446224639462846FFF700
:10C2800061FFF0E72846BDE8F840FFF777BF0024DC
:10C29000E9E700BFC4540020FFF79ABF034B1868BA
:10C2A000A0F1080358425841704700BF3001001008
:10C2B000064B1B68082B06D1054B1B68032B02D8C5
:10C2C000044AD05C70470020704700BF3001001066
:10C2D000340100107C9A030008B5FFF7DFFF40B17E
:10C2E0004FF080430022C3F80C21C3F81021C3F89B
:10C2F0003825FFF7D3FF002846D04FF080525E4B21
:10C30000D2F80414C3F82015D2F80814C3F8241581
:10C31000D2F80C14C3F82815D2F81014C3F82C1551
:10C32000D2F81414C3F83015D2F81814C3F8341521
:10C33000D2F81C14C3F84015D2F82014C3F84415E1
:10C34000D2F82414C3F84815D2F82814C3F84C15B1
:10C35000D2F82C14C3F85015D2F83014C3F8541581
:10C36000D2F83414C3F86015D2F83814C3F8641541
:10C37000D2F83C14C3F86815D2F84014C3F86C1511
:10C38000D2F84424C3F87025FFF792FF10B13B4B5D
:10C390003B4A1A60FFF78CFF18B13A4BFB22C3F8F7
:10C3A0001825FFF785FF48B13749384B0A681B68E5
:10C3B00022F00F0203F00F0313430B60FFF778FF27
:10C3C00018B1334B4FF400721A60FFF767FF48B1A2
:10C3D0004FF08043D3F80024D20744BF6FF001022E
:10C3E000C3F800242B4AD2F8883043F47003C2F813
:10C3F0008830BFF34F8FBFF36F8F4FF01023D3F808
:10C400000022002A03DBD3F80432002B2FDA224B60
:10C410000122C3F80425D3F80024002AFBD04FF0F2
:10C4200010221221C2F80012D3F80024002AFBD0F7
:10C430004FF010231222C3F80422174B1A46D3F8E8
:10C4400000140029FBD00021C3F80415D2F80034F1
:10C45000002BFBD0BFF34F8F0E49104BCA6802F47C
:10C46000E0621343CB60BFF34F8F00BFFDE70C4B7F
:10C470000C4A1A6008BD00BF00C000408C56004046
:10C480004881030000F00040E40E00405802001014
:10C490004096024000ED00E000E001400400FA0593
:10C4A000142C00200090D003BFF35F8F014B0022BB
:10C4B0001A6070474C57002008B501210448FCF76A
:10C4C0006CFFBFF35F8FB0FA80F0400908BD00BF7A
:10C4D0004C570020094B98420DD00AD868B1084942
:10C4E00048F2165248F24253884214BF104618468A
:10C4F00070470449F4E748F202507047080CF00016
:10C500008408F0002023F0002DE9F041037AA4B064
:10C510000546884673BB4668B06808F049FB0423AB
:10C520008DF8083005F10C07B279044639460DF153
:10C53000090005F080FFFFF7BFFFE8B1B2790123E2
:10C540001A4402A92046CDE9007807F037FFFFF72B
:10C55000ABFFFFF7BFFF044628B901232B7220462B
:10C5600024B0BDE8F081B2790DF10901384605F03B
:10C5700062FFF4E70024F2E748F20454EFE700001A
:10C5800070B54B6886B0054698680E46144608F0AC
:10C590000FFB0590FFF790FFA8B10023CDE90153F1
:10C5A00004F10C03059A0A490093284606F1080392
:10C5B00008F04EF8FFF778FF0123237206B0BDE8BC
:10C5C0007040FFF787BF48F2045006B070BD00BF4F
:10C5D000F5C9020010B5436804469A790C3005F09D
:10C5E0002AFF0020207210BDF0B5047A4768A5B07C
:10C5F00005460E4644B900F10C01BA79304605F003
:10C600001AFF204625B0F0BDFFF756FF00B3BB79F7
:10C61000013302AA0421019305F10C0001AB07F0DC
:10C6200091FF0446FFF740FFBA79019B511C9942E4
:10C6300011D19DF80830042B0DD10DF109013046C0
:10C6400005F0F9FE204625B0BDE8F040FFF742BFF7
:10C6500048F20450D6E748F21650D3E770B52023CD
:10C6600086B0CDE9043304460E461546FFF724FF95
:10C6700090B10B4B0294CDE9004306F1080205ABE3
:10C6800004A905F1080008F0D7F9FFF70DFF06B07F
:10C69000BDE87040FFF71EBF48F2045006B070BD01
:10C6A000F5C9020008B52022083005F0C4FE0020BC
:10C6B00008BD08B50B46202200F10801184605F018
:10C6C000BAFE002008BD000070B5402386B01646B3
:10C6D0002022CDE9042304460D46FFF7EDFE90B17C
:10C6E0000B4B0294CDE9004306F1080204AB05A907
:10C6F00005F1080008F004FAFFF7D6FE06B0BDE821
:10C700007040FFF7E7BE48F2045006B070BD00BFAE
:10C71000F5C9020008B52022083005F08CFE002083
:10C7200008BD08B50B46202200F10801184605F0A7
:10C7300082FE002008BD00002DE9F04FD1F80490E2
:10C7400095B080460F460146104616461D46FFF737
:10C75000DBFE002836D199F80540DFF874A0A30766
:10C760001CBF033424F003044FF0010150460BBFFB
:10C7700002940294AB460DF10C0BFCF70EFE04463E
:10C78000BFF35F8F08BBCDF8008002AB5A4607F1BC
:10C79000080106F10C0007F0D9FF0646BFF35F8FD2
:10C7A000AB45CAF800400AD099F80520D11CC9430E
:10C7B00001F0030103AB1944284605F03CFE304666
:10C7C000FFF788FE15B0BDE8F08F48F20450F9E796
:10C7D0004C5700202DE9F043DFF850901F464B687E
:10C7E00087B05B79059380460E4648460121144682
:10C7F000FCF7D3FD0546BFF35F8FA0B920230834B3
:10C80000CDF808800193009406F1080205A9384686
:10C8100008F00EF8BFF35F8FC9F80050FFF75AFE1B
:10C8200007B0BDE8F08348F20450F9E74C57002008
:10C83000002110B50846FEF799FF044608B908F034
:10C8400061FA204610BD000008B5074B00221A60AF
:10C85000BFF35F8F08F022FA014618B9BDE808401F
:10C86000FEF784BF032008BD4C570020002844D0A9
:10C87000A0F57000A0F54060352839D8352837D8A4
:10C88000DFE800F0211E362427272A3330363636DB
:10C89000361E361E3939393636363636363636365F
:10C8A00036363636242A24271B2D362D3636363694
:10C8B00036363636212A27361E1E48F21750704764
:10C8C00048F20350704748F21350704748F2105036
:10C8D000704748F21150704748F21450704748F2C0
:10C8E0000150704748F20250704748F2715070474B
:10C8F00048F21650704748F27050704708B5012151
:10C900000448FCF74AFDBFF35F8FB0FA80F040099E
:10C9100008BD00BF4C57002013B502680C4B0191B5
:10C920009A4204460FD0FFF7E9FF70B10199201D2C
:10C9300006F012FCFFF79AFFBFF35F8F054B002252
:10C940001A6002B010BD0020FBE748F20450F8E77F
:10C950006169614D4C570020F8B50E461746051D1C
:10C960001C466BB93246B9B2284606F009FAFFF701
:10C970007DFF5CB1BFF35F8F054B00221A6005E0BD
:10C98000FFF7BCFF0028EDD148F20450F8BD00BF0E
:10C990004C57002073B50C2B04460E4601921D46E1
:10C9A0001DD8AB071ED1FFF7A9FFF0B101990434E0
:10C9B00065B93146204606F033FCFFF757FFBFF359
:10C9C0005F8F0B4B00221A6002B070BDAAB22046E6
:10C9D00006F094FCFFF74AFF0028EAD0EFE748F2A0
:10C9E0001150F1E748F21650EEE748F20450EBE739
:10C9F0004C57002008B51046FEF77BFF38B1044ABB
:10CA0000044B48F2025188420CBF1046184608BD3C
:10CA1000080CF0000F0CF00070B51C4B002501460F
:10CA20002E464FF0FF309A7C72B15A7CC2B1DA6860
:10CA30008A4205D9521ADA60904228BF104603E0B4
:10CA40001A7C5E7432B99A740135082D03F114030F
:10CA5000E9D170BDB0F5203F28BF4FF42030F3E797
:10CA60001C7C0CB99C74EFE79A680A44B2F5203F2D
:10CA70009A6024BFA2F520329A609A6824BF04F11C
:10CA8000FF341C74C2F52032D6E700BF5057002097
:10CA900010B5FFF7C1FF0446FBF7BCF90C4B18605B
:10CAA000631C14D00B4822462146FBF790F970B165
:10CAB000FDF786FB084B0949024609481B1ADB08AB
:10CAC0001B04BDE8104043F00200FEF781BB10BD1F
:10CAD00010580020F0570020FC8D03008C9A0300B2
